S01700006D696B726F655F6D6963726F73645F332E73333774
S1130000001000208D0B0000177A0000177A000002
S1130010177A0000177A0000177A0000177A000098
S1130020177A0000177A0000177A0000177A000088
S1130030177A0000177A0000177A0000177A000078
S1130040177A0000177A0000177A0000177A000068
S1130050177A0000177A0000177A0000177A000058
S1130060177A0000177A0000177A0000177A000048
S113007099570000177A0000177A0000177A0000D9
S1130080177A0000177A0000177A0000177A000028
S1130090177A0000ED140000177A0000177A0000A8
S11300A0177A0000F9100000D9100000177A000038
S11300B0177A0000177A0000177A0000177A0000F8
S11300C0177A0000177A0000177A0000177A0000E8
S11300D0177A0000177A0000177A0000177A0000D8
S11300E0177A0000177A0000177A0000177A0000C8
S11300F0177A0000177A0000177A0000177A0000B8
S1130100177A0000177A0000177A0000177A0000A7
S1130110177A0000177A0000177A0000177A000097
S1130120177A0000177A0000177A0000177A000087
S1130130177A0000177A0000990A00006579000018
S11301402DE9F843161E1F4606DA7242D31782427F
S11301508B410AD3212074E0F31734184B414FF03C
S1130160000228BF0122002AF4D13D4B83424FF004
S113017049038B41EED3351841EBE67928463C22FE
S11301800023494606F0BCFA00233A703C2206F0EC
S1130190B7FA00237A70182206F0B2FA0446013046
S11301A0BA7088464FF0070241F10001002306F0BF
S11301B0A7FA28463A72494627A3D3E9002306F052
S11301C09FFA85B2042D3ED905F26C75A9B240F2AE
S11301D06C7008F0E7FA201A4FF0000368F1000190
S11301E040F26D1206F08CFA85B205F26C7189B298
S11301F040F26C7008F0D6FA01462846FD8008F0FB
S1130200E1FA40F26D13641A4FF00C014FF0000252
S113021003FB05F568F10008641B04F101037B810D
S1130220104B68F1000801FB0030D3B2C35C511CD1
S11302309C4278F1000508D2002001343A71FC7028
S1130240FE60BDE8F8830021D7E7E31A1C460A469E
S113025068F10008E9E700BF8033E1010000000015
S11302607FBD6879ADB500000348044B834202D0DA
S1130270034B03B1184770475C1C00205C1C002032
S113028000000000064B0749C91A891048BF013114
S1130290491003D0044B0BB101481847704700BF05
S11302A05C1C00205C1C00200000000010B5064C03
S11302B0237843B9FFF7D8FF044B13B10448AFF3D5
S11302C000800123237010BD0A19002000000000E3
S11302D09CB7000008B5054B1BB105490548AFF3B1
S11302E00080BDE80840FFF7CDBF00BF000000005C
S11302F0081000209CB70000A3F5803A704700BFA7
S1130300174B002B08BF134B9D46FFF7F5FF002149
S11303108B460F461348144A121A09F09FFA0E4BE3
S1130320002B00D098470D4B002B00D0984700209D
S1130330002104000D000D48002802D00C48AFF342
S1130340008006F03FFF2000290007F0CEFA06F0F7
S113035067FB00BF00000800000000000000000070
S113036000100020001000203C1B002000000000B2
S11303700000000070B5ADF5956D0021102210A8A5
S113038009F06CFA9E4A9F4B9F4CCDE9102300F074
S1130390CFFA10A808F02FFA064610B39B4920683C
S11303A008F0F2F89A49206808F0EEF807F0DCFA51
S11303B007F0DBFA974B984A009398496123206829
S11303C008F0E2F896493346964A206808F0DCF8CB
S11303D0304600F09DFB9449206808F0D5F800BE33
S11303E0FDE705F00FFF054607F0BEFA07F0BDFA7A
S11303F06B0003F01F030393C5F345130293C5F386
S1130400C4230193C5F3044300936A0EC5F3435315
S1130410864902F2BC72206808F0B6F8844B854D18
S11304201B6802215A7A2B605B7B8DF82C200BA869
S113043001228DF82D3000F04DFD286805F082FE74
S113044032467D499EA806F033F9054610B36F493C
S1130450206808F099F86E49206808F095F807F0CC
S113046083FA07F082FA6B4B6B4A00936B497F2344
S1130470206808F089F86A492B46704A206808F019
S113048083F8284600F044FB6749206808F07CF8AC
S113049000BEFDE768480CAA0DA909F05EF8054600
S11304A010B35A49206808F06FF85949206808F0D9
S11304B06BF807F059FA07F058FA564B564A00936E
S11304C056498323206808F05FF855492B465B4A58
S11304D0206808F059F8284600F01AFB52492068B1
S11304E008F052F800BEFDE707F03EFA07F03DFAC7
S11304F05349206808F048F807F036FA07F035FA4F
S11305000C9A0D9D53895169580802394543484353
S1130510167809950890906A5B020790506A0690D5
S1130520106A0590D069CDE903109169029111898F
S11305300191D27843490092434A206852F8262018
S113054008F022F807F010FA07F00FFA3F49206884
S113055008F01AF813223E4914A808F044FD054691
S113056010B32A49206808F00FF82949206808F0D8
S11305700BF807F0F9F907F0F8F9264B264A00932F
S113058026499B23206807F0FFFF25492B462B4A69
S1130590206807F0F9FF284600F0BAFA22492068DB
S11305A007F0F2FF00BEFDE726222A490EAB14A88D
S11305B008F0B6FE054600284ED01449206807F01E
S11305C0E3FF1349206807F0DFFF07F0CDF907F0D8
S11305D0CCF9104B104A009310499F23206807F070
S11305E0D3FF0F492B46154A206807F0CDFF284654
S11305F000F08EFA0C49206807F0C6FF00BEFDE744
S1130600001E0A0102007A00381400206BA70000C3
S1130610B8A5000027A80000BDA50000C6A50000DD
S1130620D5A50000D2A50000EAA50000FBA50000A6
S1130630D41B00202010002083B200002CA6000050
S113064035A6000063A6000048A800006DA70000BE
S1130650A4A700005CA8000007F086F907F085F95C
S11306600E9A6149206807F08FFF14A808F068FF0C
S1130670054610B35D49206807F086FF5C49206891
S113068007F082FF07F070F907F06FF9594B5A4AE7
S113069000935A49A423206807F076FF58492B4653
S11306A0584A206807F070FF284600F031FA56498E
S11306B0206807F069FF00BEFDE70122534914A832
S11306C008F091FC054610B34849206807F05CFF28
S11306D04749206807F058FF07F046F907F045F945
S11306E0444B454A00934549A823206807F04CFF32
S11306F043492B46434A206807F046FF284600F04A
S113070007FA4149206807F03FFF00BEFDE74FF4B8
S113071000723F490FAB14A808F051FD054610B311
S11307203249206807F030FF3149206807F02CFF78
S113073007F01AF907F019F92E4B2F4A00932F49A5
S1130740AC23206807F020FF2D492B462D4A206852
S113075007F01AFF284600F0DBF92B49206807F060
S113076013FF00BEFDE707F0FFF807F0FEF80F9A4D
S11307702849206807F008FF07F0F6F807F0F5F8B5
S1130780234A2549206807F0FFFE14A808F0D8FE84
S1130790054610B31549206807F0F6FE1449206891
S11307A007F0F2FE07F0E0F807F0DFF8114B124A09
S11307B000931249B223206807F0E6FE10492B4645
S11307C0104A206807F0E0FE284600F0A1F90E491F
S11307D0206807F0D9FE00BEFDE701220F4905F0AD
S11307E067FF0DF5956D70BDAEA700006BA7000007
S11307F0B8A5000027A80000BDA50000C6A50000FC
S1130800D5A500002CA60000EAA50000A4A70000BE
S11308100B190020E5A700001BA8000083B200000C
S113082070B50446094806F065FB0025084EE368E8
S11308306268D21AAA4200DC70BDA2682B4430461A
S113084052F8231006F044FB0135F0E782A80000BB
S113085098A8000070B504460A4806F04BFB002532
S1130860094EE3686268D21AAA4200DC70BDA2682D
S11308702B4452F82330304693F9001006F028FB3D
S11308800135EEE79DA80000B3A80000F0B5C368E9
S1130890426887B0D21A012A05DC1E4807B0BDE8B9
S11308A0F04006F027BB86689F0056F823301B787B
S11308B033B10021184807B0BDE8F04006F008BB8A
S11308C06C46164D3E440FCD0FC495E8030084E8F2
S11308D0030074681249204608F0EAFF20B968460C
S11308E007F0F8F807B0F0BD20460E4908F0E0FF25
S11308F018B9684607F0F1F8F4E720460A4908F009
S1130900D7FF18B9684607F0EBF8EBE7074806F09D
S1130910F1FAE7E7B8A80000D0A80000D0AA0000C8
S1130920FEA8000001A90000BAA9000005A9000062
S113093008B5084B1968084B186807F0DFFB18B9AD
S1130940C221064807F075F8BDE80840044806F0DF
S1130950D1BA00BF3C1B0020881B00203AA900002C
S113096043A900001FB5094B094A1868094B01A99E
S11309701860094B1360094A0192094A1268CDE9CB
S1130980022307F02AFA05B05DF804FB881B002057
S113099024170020281700207C1B00206CAA0000CC
S11309A0E012002038B503F053FF0446064D2B68CF
S11309B0D3F8B00203F040FF286807F022FA20467B
S11309C0BDE8384003F038BF881B0020064B1B6885
S11309D01A7A022A04D812B11B68044A13607047B9
S11309E0032AF9D0704700BF8C1B0020E0120020BE
S11309F070B51F4DA0B00AAC0FCD0FC495E8070029
S1130A0084E8070000244FF480136E46CDE90144C6
S1130A100394009311AD0FCE0FC5164BCDE90644D8
S1130A202B60154B089416AD05AE05930FCE0FC57C
S1130A302022124B12482B60124B11A91B93124B0C
S1130A401E94CDE91C23114B0AAA1F93104B03F0EB
S1130A500BFF044618B1AE210E4806F0EAFF002150
S1130A604FF4E13006F0C9FF204620B070BD00BF4E
S1130A70B4AA00003400035A010010003C00035AD9
S1130A80981300200B1B002001010100A01B002073
S1130A90E41200207EAA0000014803F0FBBF00BF5F
S1130AA098130020014807F012B800BFD0AA000034
S1130AB0024B0349186800F02BBE00BFD41B002072
S1130AC0B41B0020012208B5074B1A700022074B03
S1130AD01A700422064B1A701F22064B1A7003F078
S1130AE0B7FE054B186008BD511C00202B1B0020CD
S1130AF0501C00204F1C002038140020024B0349D6
S1130B00186807F041BD00BF38140020E8AA0000AF
S1130B1070B50C4C0C490646206807F035FD03F00F
S1130B2097FE0546206803F087FE3046FFF7E6FF90
S1130B30284603F081FE20680449BDE8704007F0B0
S1130B4023BD00BF38140020EAAA0000ECAA00006C
S1130B5008B5034809F0C0FCBDE8084006F0CFBE64
S1130B6094B30000014809F0B7BC00BF94B300007F
S1130B700348044A0449121A921006F04DBF00BFFC
S1130B8040010000400100003C1B002008B5154B4B
S1130B9083F30A8800F030F8FFF7EAFF124B134999
S1130BA08B4212D30020124B12498B4218D3FFF709
S1130BB0A7FB186850F82240586840F822400132D8
S1130BC098688242F5D30C33EAE70022F8E71C6800
S1130BD044F8220001325C68A242F8D30833E4E707
S1130BE00022F8E700000020A4B70000B0B700001E
S1130BF0B0B70000B0B700004FF40041134B144AE3
S1130C0070B59A60D3F88820124D42F47002C3F88C
S1130C108820114A05F5005491664FF0FF32226690
S1130C204FF6DF7262660222C3F8D020BFF34F8F03
S1130C30BFF36F8F4FF44036032003F0ABFD032066
S1130C40E66003F03FFD2E6170BD00BF00ED00E0E3
S1130C50000000000080004400900050014B186028
S1130C60704700BFDC1B0020054B1860054B1B6F51
S1130C7003F00703032B01D109F014B8704700BF38
S1130C80E41B00200080005038B504460D4601B135
S1130C9018B93721034806F0CCFE23682B60256081
S1130CA038BD00BFEFAA000038B504460D4601B1B7
S1130CB018B94521044806F0BCFE236813B92B601B
S1130CC0256038BD1C46F8E7EFAA000010B50446BD
S1130CD018B95621044806F0ACFE206818B1036820
S1130CE023600023036010BDEFAA000070B5D0B1EB
S1130CF0C9B10E4E431E013913F8014F2046325D2F
S1130D0002F00302012A11F8012F08BF04F12000A8
S1130D10B55C05F00305012D08BF2032801A01D10E
S1130D20002CE9D170BD0120FCE700BF69B60000CA
S1130D30002307B52948019309F0CEFB4FF4407313
S1130D40012204216846ADF8003000F0C3F8012206
S1130D50234B0520C3F8442401A909F0B8FB00285B
S1130D6039D1204BD3F8F02042F00102C3F8F0202F
S1130D70D3F8FC2042F08072C3F8FC201A4AA3F591
S1130D805D431A60019B194A03F5D52303F2FC4322
S1130D90B3FBF2F3164A013B13610223C2F8F030AD
S1130DA04FF48073C2F804334FF06043114AC3F820
S1130DB0B02F114AC3F8802ED3F8002E42F480726B
S1130DC0C3F8002EFF2283F82020D3F8002E22F44B
S1130DD08072C3F8002E03B05DF804FB94B30000E6
S1130DE000D0035000ED00E0FF030040F8590D006F
S1130DF0000004E055CEACC5090001004FF060438B
S1130E00D3F8802E30B5D20715D501240B4D84407C
S1130E10D5F8FC2042F08072C5F8FC20D3F8002EEF
S1130E202243C3F8002E53F82020002AF0D003F800
S1130E302010002030BD1120FCE700BF00ED00E0D1
S1130E402DE9F04104460C254FF00108124E0CB375
S1130E5014F001000BD0002024F0010405FB006213
S1130E605768002FF3D09168C0B2B847EFE7224625
S1130E70013020284FEA520201D0D307F8D508FAEE
S1130E8000F20F2824EA0204E8D9103805FB0062B6
S1130E90B432E5E7BDE8F0813C14002008B50C4805
S1130EA009F01AFB192003F027FC28B1192003F0DC
S1130EB071FC192003F006FC1A2003F01DFC28B174
S1130EC01A2003F067FC1A2003F0FCFB002008BD85
S1130ED094B300002DE9F0410E461746044638B994
S1130EE093211A4806F0A5FD22252846BDE8F08185
S1130EF00F290BD803787BB1013BDBB2022B05D859
S1130F00134AD35C6278D340DB0708D497210F4897
S1130F1006F08FFD2125E8E740F2FF13F2E70D4BC1
S1130F20D3F810532DB19B21084806F082FD022509
S1130F30DBE709F0C1FA80463A462046314602F022
S1130F40C7FC404609F0B3FACFE700BF29AB000065
S1130F5067AB000000C0035038B5044628B91348F5
S1130F60E42106F066FD222038BD03787BB1013B05
S1130F70DBB2022B05D80E4AD35C6278D340DB0780
S1130F8008D40A48E82106F054FD2120ECE740F299
S1130F90FF13F2E709F090FA0546204608F040FFF7
S1130FA0284609F084FA0020DEE700BF29AB0000E0
S1130FB067AB000038B5044628B91348FC2106F095
S1130FC038FD222038BD037883B1013BDBB2022B0C
S1130FD005D80E4AD35C6278D340DB0709D40A48AB
S1130FE04FF4807106F025FD2120EBE740F2FF135A
S1130FF0F1E709F061FA0546204602F0D5FB2846E0
S113100009F055FA0020DDE729AB000067AB0000CA
S113101070B50D46044600B131B9144840F22D11A3
S113102006F007FD222070BD037883B1013BDBB2DB
S1131030022B05D80E4AD35C6278D340DB0709D46F
S11310400A4840F2311106F0F4FC2120EBE740F2AB
S1131050FF13F1E709F030FA0646204602F000FCDF
S11310602870304609F023FA0020DCE729AB0000A1
S113107067AB000070B50D46044600B131B91448A1
S11310804FF4A37106F0D5FC222070BD037883B120
S1131090013BDBB2022B05D80E4AD35C6278D34005
S11310A0DB0709D40A484FF4A57106F0C2FC2120DD
S11310B0EBE740F2FF13F1E709F0FEF9064620469C
S11310C002F0A0FB2870304609F0F1F90020DCE7BB
S11310D029AB000067AB000008B502F0EFFB054B3D
S11310E000F0553020F05020C3F82004BDE808403B
S11310F0FFF7A6BE00E0035008B502F0DFFB054B86
S113110000F0AA3020F0A020C3F82004BDE8084075
S1131110FFF796BE00E0035013B504460A4809F0F1
S1131120DBF9A2780421B2FA82F2237852098DF80D
S1131130043063780DEB01008DF80530FFF7CAFE2B
S1131140002002B010BD00BF94B300002DE9F04FA1
S11311509A46564B85B01B7806460F461546DDF871
S11311603C909DF844B0DDF85080002B00F097804F
S1131170072A00F296800E9B002B00F09280B9F1B2
S1131180000F00F08E80129BB3F5006F00F389808E
S1131190012803D1109B002B00F08380444B03EB08
S11311A005131B7B002B7ED0424C10220021684685
S11311B008F054FB04EB45141022A7BB3946204623
S11311C008F04CFB43F210036380BBF1000F03D122
S11311D0E37843F00303E370364A0E9B02EB451CAD
S11311E0CCE90193129B6901581E9DF84C30C0F361
S11311F00A0003F003039B0643EA001E53582E48DB
S1131200012E00EA03004EEA0003CDF800A053507B
S113121017D0B8F1000F2ED19CF8023068F30413F4
S11312208CF8023027E00021204608F017FB4FF429
S113123044736380BBF1000FCED1E37843F03003F5
S1131240C9E713230CF1100ECCF80C309CE80F0006
S11312508EE80F006FF00301DCF81C20109B61F393
S11312609F02012FCCF81C20CCF8143003D1CCF809
S11312701890CCF8043000270D4A290102EB05131D
S113128042F80180159A28465A60694622469F60B2
S11312905E7302F075F8384605B0BDE8F08F074874
S11312A0FAE70748F8E70748F6E700BF2C1B0020D9
S11312B0A4160020A41500200F80FFF3028000F084
S11312C0018000F0078000F038B5124B05461B780A
S11312D0DBB1E0B109F0F0F80F4A00231146147BAA
S11312E054B92B6001251A0101EB03131D738C50B3
S11312F009F0DDF8204638BD0133082B02F1100255
S1131300EDD109F0D4F80548F5E70548F3E70548B9
S1131310F1E700BF2C1B0020A4160020048000F07D
S1131320028000F0018000F038B509F0C5F8002310
S113133005460B4A147B6CB90133082B02F11002E9
S1131340F8D101F09FFF074B28461C7009F0AFF855
S1131350204603E0284609F0AAF8034838BD00BF38
S1131360A41600202C1B0020058000F00D4B10B5A6
S11313701B78044693B1072812D809F09DF80A4B4C
S113138003EB04131A7B2AB100241C7309F08FF8B1
S1131390204610BD09F08BF80448FAE70448F8E742
S11313A00448F6E72C1B0020A4160020068000F059
S11313B0028000F0018000F0154B13B5186800237B
S11313C001908DF8043009F077F8124B1C7824B1A1
S11313D009F06DF8104802B010BD01221A7009F02E
S11313E066F80E4B01A81C731C7783F82C4083F815
S11313F03C4083F84C4083F85C4083F86C4083F8AD
S11314007C4008238DF8073001F072FF2046E2E7A4
S11314106AAB00002C1B0020038000F0A4160020FF
S1131420F8B50D4D2D7885B1072810DC0B4D06015C
S113143005EB0014277B67B1AB510025069BA56023
S1131440636001F09DFF2846F8BD0548FCE70548A8
S1131450FAE70548F8E700BF2C1B0020A41600207B
S1131460028000F0018000F0078000F00A4A08B50D
S113147012785AB107280BD8084A02EB00131B7BD9
S113148043B1002101F014FF002008BD0448FCE72B
S11314900448FAE70448F8E72C1B0020A4160020AF
S11314A0028000F0018000F0078000F00A4A08B5CD
S11314B012785AB107280BD8084A02EB00131B7B99
S11314C043B1012101F0F4FE002008BD0448FCE70B
S11314D00448FAE70448F8E72C1B0020A41600206F
S11314E0028000F0018000F0078000F0184B2DE925
S11314F0F0411F6D5B6D1F4000D5FEE701260025FE
S1131500144CDFF85880374218D02368C8F850606C
S1131510A3B1A168284601316268A1609847637B42
S1131520012B0BD150B90C4B03EB45131A7B60F321
S113153041021A731A7F60F341021A770135082DAC
S11315404FEA460604F11004DDD1BDE8F08100BF86
S113155000000450A4160020A4150020002004500C
S113156038B5144608F0A8FF0023A36484F84C306F
S11315702364237F0546012B03D104F1600008F0A6
S1131580A3FD636B1BB100212046E26B98472846FC
S113159008F08DFFA36D002B03DCCA21034806F07D
S11315A048FAA36D0120013BA36538BD6EAB000072
S11315B038B50546B0B1B9B1B2B1B2F5006F13DCBC
S11315C008F07AFF95F84C3003F0FF041BB108F0E3
S11315D06EFF064838BD012385F84C3008F067FFDC
S11315E02046F7E70248F5E70248F3E7032000F056
S11315F0012000F0022000F02DE9F0431E460023F4
S113160087B080F8543090F85C700E9B044688468E
S1131610C66343633FBB4FF4406305686B61436932
S1131620092B23D905F12C03443501274FF0010977
S1131630A16D0131A16512490494CDE902710196AD
S1131640CDF80090216BA06A06F0ADFA0023CDE935
S11316500167CDE90333CDF8009043462A46E16A99
S1131660606A06F086FA07B0BDE8F08303D105F19D
S113167020033835D9E705F124033C35D6E700BF0C
S1131680611500002DE9F0431646002290F85C70C5
S11316900446884687B080F85420C663436347BB3A
S11316A04FF4406305686B614369092B24D905F144
S11316B02C03443501274FF00009A26D0132A265C5
S11316C0124A0494CDE902720196CDF80090216B80
S11316D004F13802A06A06F066FA0123CDE9039901
S11316E0CDE9016700932A464346E16A606A06F041
S11316F040FA07B0BDE8F08303D105F12003383583
S1131700D8E705F124033C35D5E700BF6115000097
S11317102DE9F0410546634F88B001AE0C460FCF6A
S11317200FC697E8070086E80700002D00F0B88090
S11317301CB95D4808B0BDE8F08184220021284628
S113174008F08CF82368594A934200F08A8002F525
S113175080429342EDD14FF4A0224FF00108544847
S113176054492E462746C5E90B12286546F8043B22
S11317700FCF0FC697E80F0086E80F00637E012B9A
S113178008BF8DF81230A37E2BB1012B70D14FF41A
S11317900073ADF81430237E4748012B03BF0023A8
S11317A08DF811304FF4E133E368039308F094FEAD
S11317B02B6D986808F090FE23691A1F0C2AB8D87C
S11317C0033B206801A98DF8103001F089FFA3695B
S11317D023F47F0323F47F432BB94FF480322B6827
S11317E003F580539A60237A2079617940EA0340B3
S11317F0637AA27941EA0341A37AE67E42EA03428C
S11318002E4B4FEA48184344C3F83406C3F82C1649
S1131810C3F83026BEBBE17AE27942EA0142C3F85A
S113182020261D2201212846C3F81C2606F0D5F9DE
S113183000287FF47FAF08F03FFE214B1A7822BBCB
S113184001221A7008F033FE03F03AFEFFF7B4FDEC
S1131850002105F12400FFF737FD0146C0B1194806
S113186068E74FF480224FF000081748174978E7DB
S1131870022B02D14FF480738BE7032B7FF459AF13
S11318804FF4407385E71C22CCE708F010FEDDE737
S113189005F12800FFF718FD00283FF44BAFDEE701
S11318A00B4847E7ACAB0000022000F000C0055035
S11318B0A0B300000200050094B3000000C0035070
S11318C02D1B0020092000F0ACB30000020004002E
S11318D0012000F038B590F85C500446002D46D144
S11318E00368254A934204D002F58042934241D1D1
S11318F00125A06A08F030FA606A08F02DFA002188
S1131900204606F06AF9237F012B03D104F160001D
S113191008F0DAFB94F85C30B3B9206801F0A8FE53
S113192094F85C2082B96B0103F1A04303F5703392
S1131930C3F81C26C3F83426C3F82C26C3F8302673
S1131940E27F0AB9C3F82026236D986808F0C7FD22
S1131950606AFFF70BFDA06AFFF708FDFFF7E4FCE0
S1131960A36D0020002BC4BF0023A36538BD4FF036
S1131970FF35BEE70148F9E700C00550022000F03A
S1131980F7B51E46037F0446012B0F46154612D0B9
S11319903246FFF70DFE60B97DB1094B2A46394640
S11319A0204600933346FFF727FE204606F08AF9C7
S11319B0A06C03B0F0BD0348FBE70348F9E700BFA0
S11319C0C5A40000082000F0022000F070B5037FD9
S11319D00446012B0D4616460DD0FFF7E9FD48B924
S11319E0324629462046054BFFF74CFE204606F0BA
S11319F069F9A06C70BD0248FCE700BFC5A40000F3
S1131A00082000F070B50D460446B0B108F054FD4E
S1131A1094F84C3006461BB108F049FD084870BDE7
S1131A2094F85C10256119B92A46206801F0FCFD80
S1131A30304608F03CFD0020F1E70248EFE700BF24
S1131A40032000F0012000F0044BD3F88420D206D8
S1131A50FBD4D3F88400C0F38110704700400050D9
S1131A6038B5104B0546D3F800310C4603F0030398
S1131A70022B0BD0032B0DD0012B0FD108F02CF926
S1131A80032305B1286004B1236038BD08F02EF9A2
S1131A900823F6E708F026F90723F2E701230020DC
S1131AA0EFE700BF0080005038B5104B0546D3F86F
S1131AB020310C4603F00303022B0BD0032B0DD073
S1131AC0012B0FD108F0C8F8052305B1286004B133
S1131AD0236038BD08F000F90323F6E708F0F8F8AE
S1131AE00223F2E701230020EFE700BF008000504B
S1131AF038B5104B0546D3F840310C4603F00303C8
S1131B00022B0BD0032B0DD0012B0FD108F0C0FCFE
S1131B10092305B1286004B1236038BD08F0E6F854
S1131B200823F6E708F0B7FC0B23F2E701230020B3
S1131B30EFE700BF0080005038B5104B0546D3F8DE
S1131B4060310C4603F00303022B0BD0032B0DD0A2
S1131B50012B0FD108F09CFC092305B1286004B1C6
S1131B60236038BD08F0C2F80823F6E708F093FCB8
S1131B700B23F2E701230020EFE700BF00800050B1
S1131B8038B51A4B0546D3F824010C4600F007007B
S1131B90062821D8DFE800F0280410181C0C1400D3
S1131BA008F05AF8052305B1286004B1236038BD54
S1131BB008F052F80623F6E708F08EF80323F2E75C
S1131BC008F08AF80423EEE708F082F80223EAE733
S1131BD008F088F80723E6E7054840F6DB7105F0CE
S1131BE028FF00231846DEE70123DCE700800050CD
S1131BF0C8AB0000F7B50027114B0197D3F880411B
S1131C00064604F00304012C0D4608D0022C12D021
S1131C1041F2E6310B4805F00CFF3C4604E039463E
S1131C2001A8FFF741FF0F240EB1019B336005B1FA
S1131C302C6003B0F0BD08F04BF80190F4E700BF4E
S1131C4000800050C8AB000038B5164B0546D3F8E9
S1131C5000020C4600F00700042819D8DFE800F061
S1131C6020030B0F130008F013FC092305B12860AF
S1131C7004B1236038BD08F039F80823F6E708F00A
S1131C800AFC0B23F2E708F00DF80E23800AEDE7B7
S1131C90054841F2A44105F0CCFE00231846E5E7CF
S1131CA00123E3E700800050C8AB000038B5124BB5
S1131CB00546D3F840320C4603F00303022B0BD045
S1131CC0032B0DD0012B0FD108F0E2FB092305B142
S1131CD0286004B1236038BD08F008F80823F6E74B
S1131CE008F0D9FB0B23F2E7044841F22F4105F039
S1131CF0A0FE00231846EAE700800050C8AB0000AD
S1131D0008B5334B98424FD027D8324B984245D030
S1131D1017D8314B98423ED00AD838B12F4B98424D
S1131D2039D041F2BB312E4805F083FE002034E067
S1131D302C4B98422FD02C4B9842F2D12B4B586EFF
S1131D402BE02B4B98422CD003F5371303F5D863C3
S1131D509842E6D1254B986F1FE0264B98422FD02E
S1131D600CD8254B984223D0244B984224D0244BA2
S1131D709842D6D11D4BD3F884000EE0214B9842F3
S1131D8022D003F5740303F510539842C9D1174BBD
S1131D90D3F8980001E0154B986D08BD134B186FEC
S1131DA0FBE7124B586FF8E7104BD3F88000F4E7C9
S1131DB00E4BD3F88800F0E70C4BD3F88C00ECE71B
S1131DC00A4BD3F89000E8E7084BD3F89400E4E713
S1131DD080BA8C01405DC60080841E0040420F0022
S1131DE0C8AB000000093D00C0CF6A000080E00FCE
S1131DF00024F400007E560380D54302006CDC020C
S1131E000048E8010090D00310B40F4C0B46D4F8FE
S1131E10204204F00304012C0ED0022C10D008B18F
S1131E20002101600BB100221A6041F2050107484C
S1131E305DF8044B05F0FDBD5DF8044BFFF734BEBF
S1131E405DF8044BFFF754BE00800050C8AB00009F
S1131E50B0F5207F10B534D009D8B0F5007F2AD072
S1131E6003D898B1B0F5C07F10D0002421E0B0F5BC
S1131E70607FFAD1154BD3F88030C3F301149B066D
S1131E8017D5032C15D04FF426710FE00F4B1C6FA0
S1131E90230B13F00E0FC4F303340AD0072C08D01D
S1131EA00F2C06D0032C04D04FF42271084805F0FF
S1131EB0C0FD601C10BD054BD3F89040C4F304640E
S1131EC0F7E7024B1C6FC4F38024F2E70080005054
S1131ED0C8AB00004FF400320E4B10B504469A66AE
S1131EE00020FFF7B5FF604341F671320A4C0B4BFB
S1131EF0A04294BF00200120D969DA639A6822F4D1
S1131F00401242EA00529A60CA0344BF0022DA63D4
S1131F1010BD00BF00900050005A62020000035040
S1131F2070B5460904460D460ED140F235310D48D0
S1131F3005F07FFD334604F01F047DB103F58053A3
S1131F400122A2401A6070BD012E05D0064B074A3B
S1131F50022E18BF1346EEE7054BECE703F50053DA
S1131F60EEE700BFC8AB00006880005060820050FC
S1131F7064800050002130B5B0F5807F85B0044600
S1131F80019100F00F8100F29F80612800F294809B
S1131F901F2805D8002840F0918007F083FEDEE07A
S1131FA0A0F12004412C00F2898001A353F824F00D
S1131FB09B1F0000672100009B1F00006721000099
S1131FC09121000091210000912100009121000045
S1131FD067210000672100003D210000F720000078
S1131FE0C7210000D1210000F72000006721000074
S1131FF06721000067210000BD200000BD20000013
S1132000BD200000BD200000BD200000BD20000058
S11320109B210000192100006721000067210000B6
S113202067210000E5210000DB210000672100009A
S1132030BD200000BD200000BD200000BD20000028
S1132040BD200000BD200000BD200000BD20000018
S1132050BD200000BD200000BD200000BD20000008
S1132060BD2000009B1F0000BD2000009B1F00003E
S11320709B1F00009B1F000091210000BD20000059
S1132080BD200000BD200000BD200000BD200000D8
S1132090BD200000BD200000BD200000BD200000C8
S11320A0BD200000BD200000BD200000BD200000B8
S11320B09B1F00009B1F000080284ED040F2A441CB
S11320C04B4805F0B6FC4BE0B0F5A06F65D028D8BE
S11320D0B0F5607F52D019D8B0F5007F4ED004D847
S11320E0B0F5C07F3FF459AFE8E7B0F5207F3AD0B0
S11320F0B0F5407FE2D107F0D5FD04464FF42070DF
S1132100FFF7A6FEB4FBF0F4640835E0B0F5806F89
S11321103ED0B0F5906FD1D1002101A8FFF730FD7A
S11321201EE0B0F5E06F58D00DD8B0F5C06F4AD0BE
S1132130B0F5D06F4CD0B0F5B06FBFD1002101A87D
S1132140FFF758FD0CE0B0F5F06F4BD0B0F5086F19
S1132150B4D101A8FFF784FC02E007F083FD0190ED
S1132160019805B030BD07F09DFD04464FF4207082
S1132170FFF76EFEB4FBF0F40194F1E707F072FD93
S113218005462046FFF764FEB5FBF0F50195E7E749
S1132190002101A8FFF788FCE2E7002101A8FFF76E
S11321A033FEDDE74FF0E02302911B695B0705D5A1
S11321B007F078FD0290029B0193D1E703A902A8DE
S11321C0FFF796FCF7E7002101A8FFF791FCC7E7AA
S11321D0002101A8FFF738FDC2E7002101A8FFF79D
S11321E065FDBDE7002101A8FFF7A6FCB8E700BF25
S11321F0C8AB000008B58020FFF7BCFE034B984233
S11322009EBF4FF48032024B1A6708BD005A620227
S113221000A000501FB503460020B3F5807F019055
S113222077D026D8382B00F08A800BD8243B092B92
S11322300FD8092B0DD8DFE803F0676767670C0C2C
S11322405F0C357D522B5FD006D83D2B39D03E2B09
S11322507AD040F289514BE0802BFAD13D4B1B6F71
S113226003F00703013B032B40D8DFE803F03D36BE
S1132270393BB3F5D06F5DD019D8B3F5A06F5ED0FC
S11322800AD8B3F5806F3FD0B3F5906FE1D1002049
S113229001A9FFF775FC33E0B3F5B06F2CD0B3F5AB
S11322A0C06FD6D1002001A9FFF722FC28E0B3F5C6
S11322B0006FECD00AD8B3F5E06F45D0B3F5F06FFA
S11322C0C7D1002001A9FFF737FC19E0B3F5086F67
S11322D0BFD101A9FFF7C4FB12E0052301930FE06E
S11322E00323FBE70723F9E70223F7E740F2D6418C
S11322F0194805F09EFB03E0002001A9FFF77AFCD2
S1132300019805B05DF804FB002001A9FFF7CCFBA0
S1132310F6E74FF0E02302901B695B0705D507F051
S1132320C1FC0C230393039BD8E703A902A8FFF77E
S1132330DFFBF8E7002001A9FFF786FCE0E70020B7
S113234001A9FFF761FDDBE7002001A9FFF7AEFC5F
S1132350D6E700BF00800050C8AB00004FF48032C5
S1132360074B0849586E03F580535A660B6A23F0ED
S113237001030B62C3035CBF034B5A66704700BF83
S11323800080005000C0075000A00050F8B503685A
S113239004460F2B04D940F68A316C4805F049FBFA
S11323A063680F2B04D940F68D31684805F041FB72
S11323B0A3680F2B04D94FF43961644805F039FB45
S11323C0237B0F2B04D940F69331604805F031FB91
S11323D0637B0F2B04D940F696315C4805F029FB4A
S11323E0A37B3F2B04D940F69931584805F021FBD3
S11323F0E37B3F2B04D940F69C31544805F019FB8C
S11324002369032B04D940F69F31504805F011FB92
S11324106369032B04D940F6A2314C4805F009FB4B
S1132420E369012B04D940F6A531484805F001FBC6
S11324308020FFF7EFFE032800F087804FF400228E
S1132440434B02215A6645F60E03424AC2F88030D5
S1132450414B9962012103F580539962936DD9032D
S1132460FCD4D4E900131B0543EA0163E17B94F82F
S113247020500B43217BE77E43EA0143617B6D01DE
S113248043EA0133A17B43EA811313619169D4E9DF
S113249004031B0643EA806301F000410B43A17E61
S11324A094F823000B43217E43EA0143617E43EA0F
S11324B001239361136AE66923F00D0394F8221053
S11324C043EA8703002E2DD11362966A94F82130D3
S11324D045EA031326F033052B4343F001039362CB
S11324E01E4D1C4B9A6D35EA0202FBD102221A4D95
S11324F0AA621A659A6D5200FCD41A69A56822F47E
S1132500700242EA05521A614FF00042124B9A617E
S113251019B9022203F580539A6278B90122104B4B
S11325209A620BE0334343F008031362936A23F087
S1132530330303432B4343EA4103936294F8243067
S11325401BB1044B074AC3F88020F8BDC8AB000098
S11325500090005000C0005000D000500300014023
S113256000E00050F1A7FFFF014B93F90000704712
S11325702F1B0020436810B5072B044604D940F6EE
S1132580E6512A4805F055FAA368032B04D940F60E
S1132590E851264805F04DFA2378032B04D940F678
S11325A0EA51224805F045FA94F90130002B04DA87
S11325B040F6EC511D4805F03CFA4FF480011C4AEA
S11325C0637851664FF4D151022002F5B83251625A
S11325D018494F2B48604FF0010028BF4F2301F5E5
S11325E0805148601169C903FCD4217843EA01236E
S11325F05361D4E901131B0143EA0123617B0B43BB
S1132600217B43EA41039360E37BA17B1B0143EA03
S11326104113617C0B43217C43EA41035360A37C57
S113262013B16FF4D153536210BD00BFC8AB0000A7
S11326300090005000100250014B1880704700BFFA
S11326404A1C0020014B1880704700BF481C002022
S11326504FF4001208B5184B5A660223174A536008
S1132660936813F48033FBD1012822D107F034FBA3
S1132670134B984215D003F5122303F5F8639842DF
S113268013D0104B00EB8002400AB3FBF0F3520A64
S11326900A49CA620B6301234B620022074B5A604A
S11326A008BD45F67A13084AF2E745F61A03074AC5
S11326B0EEE75362F1E700BF009000500040025083
S11326C000F0490264666666D8B80500BBCF050011
S11326D0B0F5207F10B565D00ED8B0F5007F4FD08F
S11326E003D800B3B0F5C07F1DD04FF44671BDE8E8
S11326F01040344805F09DB9B0F5607FF5D14C1E0B
S1132700012C06D9042904D040F2F9212D4805F002
S113271090F92D4AD2F8803023F0300343EA0413B1
S1132720C2F8803010BD4C1E012C0AD9102903D8E0
S1132730264BCB40DB0704D440F2CB21214805F0E3
S113274078F905F0D1FA05F0DDFA4FF48031204B29
S11327501D4A1967136F23F4704343EA0433136764
S113276007F0A0FA0446FFF76FF9C0F10201204612
S113277005F0C2FA00F046F8BDE81040FFF73ABD94
S11327804C1E1F2C04D94FF443710E4805F051F927
S11327900D4AD2F8903023F0F85343EA0463C2F8A8
S11327A09030BFE74C1E012C04D940F21231054889
S11327B005F03FF9044A136F23F4806343EA84234A
S11327C01367AFE7C8AB00000080005010010100A0
S11327D00090005008B50121022000F093F94FF455
S11327E02070FFF735FB054B187005F07DFA05F0F6
S11327F089FA4FF48032024B1A6708BD2E1B002061
S11328000090005008B54FF4C070FFF7B3FBBDE86B
S113281008400449884294BF012102214FF42070EA
S1132820FFF756BF80F0FA0238B5044607F03AFACB
S11328300546FFF709F9C0F10201284605F05CFAE4
S11328400121002000F0B2F92CB1FFF7DBFFBDE855
S11328503840FFF7CFBC034B4FF420701978FFF7D3
S113286037FFF4E72E1B00204FF4C02201212DE98D
S1132870F0470446944B5A66944A03F598335F68CC
S113288051609D6915F00305FBD12268904B9A4273
S113289004D840F67D218F4805F0CBF822688E4B92
S11328A09A4204D940F67E218A4805F0C2F8A388EA
S11328B0B3F5967F04D840F68121864805F0B9F82F
S11328C0A388B3F5805F04D340F68221814805F0E4
S11328D0B0F8E388B3F5805F04D340F683217D48E4
S11328E005F0A7F8FFF7B0F8012820680AD17B4B60
S11328F0984207D940F68821764805F09AF80020D6
S1132900BDE8F087764A002311461668B04202D328
S11329105668B04205D90133192B02F11002F4D1E3
S1132920002301EB0313D3E9029028B1FFF7E8F980
S113293000F07F0049EA00098020FFF76BFC0528BE
S113294040F0988005F0D0F905F0DCF94FF48032BE
S11329505D4B4FF4C0701A67FFF77AFA01280546F9
S113296040F0848002214FF4C070FFF7B1FE0126CD
S1132970DFF87881D8F80C3013F0060FFAD1D8F8C4
S113298008A0C8F80890D8F8083083EA090313F4BB
S1132990F81F71D1A288E38843EA0243514AD36005
S11329A0A368032B7BD1504AD2F8003123F00303F0
S11329B043F00103C2F80031637D227D9B0143EAA9
S11329C0820322694FF000081343227B43EA420347
S11329D0444A93602068FEF741F907223B4B1A6191
S11329E00122A3F580535A60A3F580531F6917F0A1
S11329F00707FBD08020FFF70DFC05282ED126B158
S1132A0029464FF4C070FFF763FE07F04BF92368C3
S1132A100546834204D240F603312E4805F009F8F6
S1132A2007F01AF9A84204D240F60431294805F007
S1132A3000F8246807F010F9844204D040F6053108
S1132A40244804F0F6FFFEF7FFFFC0F10201284618
S1132A5005F052F9FFF7D6FEFFF7CCFBB8F1000FF3
S1132A607FF44DAF7B1E5842584149E7022801D1FB
S1132A70042178E700267BE740F6CF21154804F0CF
S1132A80D8FF17F00107C8F808A01AD18020FFF773
S1132A90C1FB05287FF433AF4FF00108AFE7082BE3
S1132AA007D1114AD2F8003123F0030343F00203A3
S1132AB080E7072B80D10C4AD2F8003143F003039E
S1132AC078E74FF0010888E70090005000E00150DB
S1132AD09FBB0D00C8AB000000B4C404005A6202DE
S1132AE000AC000000C00150008000500000015004
S1132AF0034A0179D36E23F030030B43D366704746
S1132B0000400050F8B50446244BD3F88420D00686
S1132B10FBD4D3F88430C3F381139C423CD007F038
S1132B20A1F8012C05460BD11D4B984204D940F263
S1132B309B711C4804F07DFF0121284605F0DCF858
S1132B4007F0B1FC4FF00072174B07465A66204657
S1132B5005F0DDF84FF48063104E621E9340336736
S1132B60736E9A0103D4D6F884309B060AD538468E
S1132B7007F094FC022C0FD12846BDE8F840002150
S1132B8005F0BAB8D6F884309906E9D540F2B371A5
S1132B90044804F04EFFE3E7F8BD00BF00400050D6
S1132BA0005A620290AD00000060005010B50C465F
S1132BB008B907F057F8074B21461B783BB1064B81
S1132BC0984204D80120BDE81040FFF79BBF0220C3
S1132BD0F9E700BF301B0020005A62024FF00042A8
S1132BE038B5264B26495A6601224A604AF6CD3149
S1132BF003F50B235D6C1964154030BB9968C90754
S1132C000BD4002401221F4B5A6015B11E4B1F4ADE
S1132C101A6405F07DF8204638BD1A498A601C4ABA
S1132C20D96ACC0705D4904201D10724EAE70130E0
S1132C30F6E79042E5D1F8E70132DC6A14F00804C3
S1132C4006D08A42F8D10724DFE700221049F4E7CE
S1132C508A42F8D020220B4B0B495A620122A3F579
S1132C6080539A6023460A4A486A800603D49342F2
S1132C70E9D00133F8E79342C7D1E4E7009000506C
S1132C800050095000600950004009503254FFFFC1
S1132C9040420F004FF0004238B5174B174C5A66AC
S1132CA0012203F50C235A604AF6CD33656C236484
S1132CB0437893401343124AD363C3788178A2685C
S1132CC09B0043EA011322F074021343A3600279C8
S1132CD0837943EA022323614279C37943EA0223D5
S1132CE063610078FFF77AFFEB0744BF054B236469
S1132CF005F00EF8012038BD009000500040095046
S1132D00004000503254FFFF10B5044605F005F8AA
S1132D10002341F202020849E360A360226104F542
S1132D200052E3616361A36123626362E362A364AB
S1132D305164A36210BD00BF7F370C0138B5154B39
S1132D40044698420D4604D040F26911124804F03A
S1132D5070FE25B92046BDE8384004F0DEBF0122EC
S1132D6004F580535A6040F2FF71204605F00F02CB
S1132D7004F0CFFF2263782104F0CBFF05F00103B8
S1132D806A0748BF43F00203226C02F003029A422E
S1132D90FAD138BD0000035AC7AD0000F8B50646A5
S1132DA00C46154622B940F22721434804F041FE5F
S1132DB0424B9E4202D184B938240AE040F22A21CF
S1132DC03D4804F036FE44B940F279313A4804F003
S1132DD030FE2046FFF7CEF804467368012B04D07A
S1132DE04FF41771344804F024FEB36803F0E00391
S1132DF0402B42D009D893B1202B1AD040F29E2107
S1132E00BDE8F8402C4804F014BE602B42D0802B5F
S1132E10F4D105EB4503A34247D801230DE0B5EBFC
S1132E20141F04D94FF42171234804F002FE102327
S1132E3003E0B5EBD40F1AD808236B436401B4FB49
S1132E40F3F41F4F203CB7EBC40F4FEAC40504D280
S1132E5040F2A921184804F0ECFD30463D40012120
S1132E6004F057FFB562BDE8F84004F052BF40F2E9
S1132E708921114804F0DDFDDEE70623B4FBF3F3FA
S1132E80AB4201D30623D8E740F28E210A4804F06E
S1132E90D0FDF7E7B5EB940F01D80423CDE740F25A
S1132EA09321054804F0C5FDF7E74FF42671024865
S1132EB004F0BFFDB1E700BFC7AD00000000035A36
S1132EC0F8FF7F00F8B5436804460D4616461BB16B
S1132ED040F2FF7104F01DFF2046FFF715FFE9895A
S1132EE06B7B22690B43298A22F44C520B4322F058
S1132EF0030213432361A268297E2B7B22F08042C4
S1132F000B4322F0E20213436A6904F58051134330
S1132F10AA68A360EB69002A34D1A06840F000409D
S1132F20A060002B33D15EB396F82030DBB10123CF
S1132F308B614B6020462978FFF700FF236CDB434D
S1132F4013F4405FFAD1F8BD96F820305BB1012349
S1132F508B614B6020466968FFF720FFEAE796F82B
S1132F602030002B78D196F82230606996F82160E1
S1132F7020F009003343034343F001034B6161E054
S1132F800123D6E71BB9002EDED10123E1E7987AAD
S1132F901F7A4004D4F808C040EA8750304F0CEA46
S1132FA0070738439F8807F4C04738435F7840EAEF
S1132FB087005F7B40EAC7009F7B40EA07109F7849
S1132FC040EA8720A060D4F80CC0D3E90407384352
S1132FD02CF4D81727F4C06738439F7940EA872038
S1132FE0DF7940EA4720E0601878012805D1E068DD
S1132FF040F00400E0601B4806E0032828D1E068A4
S113300040F00400E06018480127C0F8C070587A06
S1133010086218B1E06840F40060E060D87A48B112
S1133020E068124F40F40040E060187B00F00F00AD
S1133030C7F88000E069DB7B20F003000343E36111
S1133040002E8CD101234B60002A3FF473AF81E73B
S113305002380128D7D9CEE701238B61F2E700BFFC
S1133060E39BBDFF00E4035000D4035000900350E1
S113307038B5294B054698420C463FD119B98C21E5
S1133080264804F0D6FC3820FFF7C4F8083808288E
S11330903DD8234B0341DB0739D4637B032B03D98E
S11330A0AD211E4804F0C5FC237B802B03D0AF2147
S11330B01A4804F0BEFC6369B3F1804F03D0B12118
S11330C0164804F0B6FC238A23F400539BB2B3F5EC
S11330D0805F03D0B321114804F0ABFCA368013B2B
S11330E0B3F5165F03D3B5210C4804F0A2FC2146C6
S11330F02846BDE838400022FFF7E4BE8A2107488D
S113310004F097FC1CB98C21044804F092FC9E2125
S1133110024804F08EFCC0E70000035AC7AD00006B
S1133120F4FEFFFF38B5114B054698420C4603D018
S113313070210F4804F07DFC1CB972210C4804F086
S113314078FC237B802B03D17621094804F071FCA1
S1133150637B032B03D97921054804F06AFC2146DB
S11331602846BDE838400022FFF7ACBE0000035AF1
S1133170C7AD0000032838B504460D4605D80B4BEF
S113318033F81030CB40DB0704D440F285410848C3
S113319004F04FFC30220123544341F2100204F1A5
S11331A0A044AB4004F57034A35038BDACAE00006D
S11331B001AE0000032838B504460D4605D80B4B74
S11331C033F81030CB40DB0704D440F256410848B2
S11331D004F02FFC30220123544342F2100204F184
S11331E0A044AB4004F57034A35038BDACAE00002D
S11331F001AE00000328F8B504460D4616461F46E6
S113320005D81C4B33F81030CB40DB0704D44FF403
S1133210B071194804F00DFC26B129462046CFB1FF
S1133220FFF7A8FF04EB4403072D4FF00F014FEA0B
S1133230031312D8A80006FA00F281400F4818447C
S113324004F08DFDAEB92946204677B1BDE8F840BB
S1133250FFF790BFFFF7AEFFE4E7A5F10800800099
S113326006FA00F281400648E9E7BDE8F840FFF7B6
S1133270A1BFF8BDACAE000074AE000004C00350A2
S11332800CC0035010B5152001F0FEF90024FF22F4
S1133290064B21465C6520209A625C60FEF740FE86
S11332A02146BDE810402120FEF73ABE000004503C
S11332B0072838B504460D4603DD7721084804F095
S11332C0B8FB1F2C03D99121064804F0B2FB064A2F
S11332D0064B002D08BF13460122A2401A6038BDD8
S11332E0B4AE0000ECAE0000401004504020045086
S11332F010B5044618B991211F4804F09AFB2378AD
S11333001B0613F0604F03D092211B4804F091FB7D
S1133310E3780F2B03D99521174804F08AFB012188
S11333202020FEF7FDFD01212120FEF7F9FD0122F9
S1133330124B15205A60227812069A606178A2789E
S113334042EA01429A61FF229A6200229A631A6455
S11333504FF000425A654FF0FF3203F500531A65EF
S113336001F018FA1520E17801F022FABDE81040C6
S1133370152001F0A7B900BFB4AE0000000004504E
S1133380F8B50126C3B2072805460C46174606FAC7
S113339003F603DDDE21334804F04BFB1CB9DF21C7
S11333A0304804F046FB236823F47C1323F00F0316
S11333B01BB1E2212B4804F03CFBA37A1B0413F459
S11333C07C0F03D0E721274804F033FBE37A1B0585
S11333D013F07E6F03D0E921224804F02AFB237BFB
S11333E05B0513F0FE5F03D0EB211E4804F021FBC4
S11333F01D4B27F003071E65226803F5005343F8AD
S11334002520302202FB05F0637B00F1A04000F58B
S113341080200366E37AA27A1B0543EA0243227BF7
S113342043EA4253C365076707F046F80F4B227A15
S11334305E6502B11E64627A02B19E632279A37949
S113344043EA0243084A93616179E37943EA014319
S113345006498B61064B56639E64BDE8F84007F04D
S113346026B800BFB4AE0000002004500010045081
S11334700000045010B50124C3B2072804FA03F471
S113348004DD40F27B11074804F0D3FA07F014F886
S1133490054B5A6D22EA04025A659C62BDE810404D
S11334A007F005B8B4AE00000000045010B50124C4
S11334B0C3B2072804FA03F404DD40F299110A4860
S11334C004F0B7FA06F0F8FF084BDA6A224208D192
S11334D05B6B9C430CBF0124002406F0E8FF2046EC
S11334E010BD0024F9E700BFB4AE00000000045092
S11334F070B50125C3B20728044605FA03F504DDB7
S11335004FF4E071094804F094FA06F0D5FF302234
S1133510074B5E6B02FB04335C6E06F0C8FF35425A
S11335200ABFC4F30A100020013070BDB4AE00001D
S113353000000450022838B505460C4603D94C2136
S11335400C4804F076FAE378627821785B0143EA68
S1133550820322790B4343EA02130C226A4302F1E9
S1133560B0421363012902BFA278034B43F825201C
S113357038BD00BF5EAF0000E880035008B54FF0CF
S1133580B0435A686AB958B15B680BB104F0F6FBF2
S113359001210D4B596004F0F1FB4FF0B043D960A9
S11335A008BD5B680BB104F0E9FB0028F0D104F01E
S11335B0E5FB4FF0B0430222DA6004F0DFFB0122A6
S11335C0024B5A60ECE700BF00100058002000587E
S11335D04FF0B0414B6810B50BB104F0CFFB0122A2
S11335E00B4BC4785A608378934043EA840344784D
S11335F02343047943EA0413447943EAC4038B6004
S1133600044B5A600378C3F10203CB6010BD00BFC2
S11336100020005800100058024B1868C0F30740FF
S1133620704700BF0080E00F70B506460C46154693
S113363022B940F2A6210C4804F0FBF924B94FF456
S11336402070FEF797FC04466D00013CB4FBF5F4D2
S1133650064B250213EA042304D040F2CB2102488E
S113366004F0E7F9F56170BD96AF0000070080FF34
S1133670174B10B59842044608D003F5804398428E
S113368004D040F25E41134804F0D3F9012204F55A
S113369080535A6040F6AA6341F205026361002335
S11336A00D49A360E365E26004F500522361E36120
S11336B0E36491640649A3658C4203D12365002326
S11336C0636502E005498C42F8D00123536010BDC4
S11336D000C0055096AF0000FFFF01000000065037
S11336E038B52E4B044698420D4608D003F5804366
S11336F0984204D040F28131294804F09AF92046D6
S1133700FFF7B6FF012304F5805253602B8AA168AA
S113371043F001030B43A97B43EA8123A360A3681D
S1133720297D43EA4173A360AB7C4BB11B49EB7C1D
S11337308C422BD1A1F51031C1F88C318023D36593
S11337402B7B2046D5E9011243F48053E360FFF755
S11337506BFF6B7B0BB1102363616B7D1BB1A368A3
S113376043F48033A360AB7D1BB1A36843F40043EF
S1133770A360EB7D2A7E1B07120503F0E04302F4ED
S1133780E0021343A3652B78636138BD05498C427D
S113379004BFA1F52031C1F89C31CFE700C005502A
S11337A096AF00000000065010B5044620B940F260
S11337B03A21124804F03DF92378E3B1013BDBB22E
S11337C0022B05D80E4AD35C6278D340DB0704D4BD
S11337D040F23D21094804F02CF901226178237854
S11337E08A4030214B4342F2100103F1A04303F518
S11337F070335A5010BD40F2FF13E5E7CFAF00001D
S11338008CB0000010B5044620B940F25A21124889
S113381004F00FF92378DBB1013BDBB2022B05D8AE
S11338200E4AD35C6278D340DB0704D440F25D21B6
S1133830094804F0FEF830222378534303F1A043EF
S113384003F5703358696378D84000F0010010BD67
S113385040F2FF13E6E700BFCFAF00008CB00000DA
S113386010B5044620B940F26E21124804F0E1F884
S11338702378DBB1013BDBB2022B05D80E4AD35CC3
S11338806278D340DB0704D440F27121094804F084
S1133890D0F830222378534303F1A04303F5703367
S11338A018696378D84000F0010010BD40F2FF139E
S11338B0E6E700BFCFAF00008CB00000034BD3F8A5
S11338C02424D3F820041040704700BF00C00350E4
S11338D02DE9F041037804460D4617460BB3013B2E
S11338E0DBB2022B05D82C4AD35C6278D340DB07C9
S11338F003D45D21294804F09CF8294BD3F81033F4
S11339001BB16021254804F094F80F2D0CD8DFE892
S113391005F0332E2E2E2E2E2E2E2E2E2E2E2E2E25
S11339202E2E40F2FF13E0E7B4211C4804F081F886
S11339304FF000082046E7B106F072FA6378267863
S1133940072B06EB46064FF00F014FEA061615D873
S11339509B00144808FA03F29940304404F016FA24
S1133960BDB920468FB1BDE8F04106F059BAA8466A
S1133970E0E7FFF719FFE1E7A846DFE7083B9B0014
S1133980094808FA03F29940E7E7BDE8F041FFF778
S11339900BBFBDE8F08100BF8CB000004BB000004D
S11339A000C0035004C003500CC0035010B54FF4C2
S11339B02F720021044605F051FF8023C4F88C3097
S11339C0054B04F19C00C4F88430012384F888304A
S11339D0BDE8104004F02EB88FB0000010B5D0F848
S11339E0A0400A468CB904F096FB044610B90024A2
S11339F0204610BD2D2896BF064B074953F82010CA
S1133A00064A074804F0CDFCF2E7D0F8A4101046AB
S1133A10A047ECE74CB1000092B000006BA7000097
S1133A207AB20000F8B590F88060044616B100261A
S1133A303046F8BD04F0BCF90028F8D1012384F81D
S1133A40803094F8883033B1D4F884101F4884F857
S1133A50886004F0A6FC4FF0FF37D4F8B402421C8F
S1133A601FD0C4F8B47210F0FF052CD0204604F027
S1133A709CF92946204600F0C1FB0028EDD02046E1
S1133A8004F098F994F888303BB1D4F884100F48C6
S1133A9004F087FC002384F88830002384F8803005
S1133AA0C6E704F063FC431CDDD1D4F88C30D4F8B1
S1133AB09420013B9A4204DB054A0649064804F077
S1133AC070FC0126E9E70126C7E700BF24A800002F
S1133AD06BA70000A0B000007AB20000F8B50B7824
S1133AE00446302B0D46164604D14B7803F0DF0311
S1133AF0582B11D0284F6A1E12F8011F002934D107
S1133B0028460A2203F036F9202C03460D4631D10B
S1133B10B1FA81F040091AE04A1C1F4912F8013F2A
S1133B208BB9284605F0DBFE1C4B02382340032BDF
S1133B3012D10134A41084420AD1A87837288CBF4A
S1133B400020012003E0CB5C13F04400E6D1F8BD73
S1133B50CCBF01200020FAE7002CB8BF0334B0EB3F
S1133B60A40FD4BF01200020F1E77B5C13F0040014
S1133B70C2D1ECE726B1084302D0013B61F1000554
S1133B800122A240013A1A40002D08BF9A420CBFFC
S1133B9001200020DBE700BF69B6000003000080BD
S1133BA0F0B5037801467B2B17D106460224002288
S1133BB00B4F16F8015F7D2D05D10B5D6BB9D24318
S1133BC002F0010008E07B5D13F0440002D00132F2
S1133BD00134EEE7202DFBD0F0BD0020FCE700BF50
S1133BE069B6000070B506460D4605F078FE044639
S1133BF0304604F0D6FB044EAC4200D370BD3046D0
S1133C0004F0CFFB0134F7E7D7B500002DE9F84FF6
S1133C10044602216048FFF7E5FF1E212068FFF7F4
S1133C20E1FF6368586804F0BCFB5C4804F0B9FB2E
S1133C3067683B7BFD2B12D8D7F808804FF0FF3420
S1133C40404605F04CFE0646DFF84C91DFF8A8A18B
S1133C50DFF864B10C3717F8013BFF2B01D1BDE845
S1133C60F88F212B14D8212B14D8DFE803F0178CFC
S1133C708884807C78741313131313131313706CD8
S1133C806864605C58541313131313131313504CC8
S1133C90FE2B34D006B10134414D02E006B10134AB
S1133CA0404D02214846FFF79DFF1E214846FFF77D
S1133CB099FF504604F075FB5946284605F0F8FD77
S1133CC03949002818BF2946384804F06AFB3B7874
S1133CD0202B02D12B2004F058FB354804F061FB63
S1133CE04EB118F804301F2B05D018F804001F2813
S1133CF001D0B4424BDB294804F053FBABE706B1D7
S1133D0001342C4DCDE706B101342B4DC9E7002E0B
S1133D10A1D001349FE706B10134284DC1E706B1B3
S1133D200134274DBDE706B10134264DB9E706B18C
S1133D300134254DB5E706B10134244DB1E706B190
S1133D400134234DADE706B10134224DA9E706B194
S1133D500134214DA5E706B10134204DA1E706B198
S1133D6001341F4D9DE706B101341E4D99E706B19C
S1133D7001341D4D95E706B101341C4D91E706B1A0
S1133D8001341B4D8DE706B101341A4D89E704F067
S1133D90FCFA0134A9E700BF83B200006BA700005E
S1133DA011B200000BB2000068B2000024A80000A9
S1133DB0BAA5000019B200001FB2000028B200002A
S1133DC02FB200003AB2000044B200004EB200002C
S1133DD039B2000043B200004DB2000056B20000F8
S1133DE05AB2000062B2000005B200000CB200003A
S1133DF061B2000004B200006AB200002DE9F04F85
S1133E0093B005468B4600240092049305F067FDA9
S1133E101C9F049B05901C6028463C600AAA09A9C3
S1133E2004F0E1FA064658B90A9805F058FD3446FC
S1133E30B146049B1860D5F89C300393039B1BB9CF
S1133E40204613B0BDE8F08F039B9B680193002BC1
S1133E5069D02E4416F8013B202B12D000260C23E7
S1133E607343019A02EB030AD3580293002B55D0F3
S1133E70DDF82480C84551DB9AF808302BB1721C58
S1133E8035E03B6801333B60E4E73B68D5F89420B8
S1133E900299D21A049B1A6012AB03EB890353F8FC
S1133EA0203C1846069305F0EEFC07900028E6D166
S1133EB0029805F014FDDAF804100346087BD7F8DD
S1133EC000A0FE28079A16D108F1FF38C8452ED065
S1133ED00B6806980292019305F001FD0AF10103B3
S1133EE0029A0344E95C21B13B6009F101091646D9
S1133EF0B5E70133F6E7D5F89420A2EB0A029A421B
S1133F00BDDC5846069305F0EAFC069B03447B2B74
S1133F101DD958461E4A009903F0AFFD2B46059A59
S1133F202A449A422AD1039B1B68039386E7D5F857
S1133F309420A2EB0A029A42E3DDD1F8008058F8FB
S1133F400C2B82B9059B3B60049B1A60E6E758463C
S1133F50029A009903F091FD58460E4A00990134E3
S1133F6003F08BFD8BE75846009903F086FD584615
S1133F70084A009903F081FD0134E0E713F8011BBE
S1133F800029CED14FF0200103F8011CC9E700BF7E
S1133F906CB20000D7B500002DE9F047002486B0CC
S1133FA01C60DDE90EA8064689468AF800401168BF
S1133FB0154888F8004017461D468DF81740FCF751
S1133FC095FE18B901242B6801332B600020D6F824
S1133FD09C6036B914B1012388F8003006B0BDE8FE
S1133FE0F087B06868B14B460021CDE902A8CDE95D
S1133FF000750DF1170204F02BF89DF81730002B13
S1134000E8D13668E5E700BF71B200002DE9F0435E
S113401000260446ADF5457D7C22314605A802AF55
S1134020049605F01BFC80222046009703AB04A9EC
S1134030FFF7E4FE01283ED104A805F050FC0399E3
S11340403B68A0EB01080B44234428EAE8780546C2
S113405004A801444246184605F034FC00F8086000
S1134060D4F89060039B3968D4F890201944B14285
S113407012DCD4F89410E81A0244C4F890200144E5
S113408004AAC4F89410D41825182B1B002B0DDC9B
S11340900DF5457DBDE8F083A05C04F076F9D4F815
S11340A0903001360133C4F89030DBE714F8010B8B
S11340B004F06BF9E9E7EBDD24AD802231462846B4
S11340C005F0CCFB44AB4FF400723146184605F0C2
S11340D0C5FB0DF1100903464A464FF0010831466D
S11340E012F8016B002E49D104A843F8281005F0FA
S11340F0F6FB2946334619F8016B0DF5887C5CF80C
S1134100042B824243D10133984501F8016BF2DA62
S1134110D4F89060039BB34242DC2346354A04A999
S1134120354804F03EF9284605F0D9FB0646039BC2
S11341303F68F61A1F44E0191D4426EAE67204F1AA
S113414098031744984204EB07014ED204F19003FC
S113415099424AD96A1E81190B1A002B39DD12F8CB
S1134160013F00F8013BD4F890300133C4F890309B
S1134170D4F894300133C4F89430EDE7202E01F1E3
S1134180010104BF43F8281008F10108A8E70DF164
S1134190100E7244D25CB242B1D00022EA54B7E7A6
S11341A0D4F890300136E05C04F0EFF8D4F89030A5
S11341B00133C4F89030ADE7D4F89020013B0132CC
S11341C0C4F89020D4F894200132C4F89420002B31
S11341D0F2DC00232E44E355731B002B7FF758AF0A
S11341E015F8010B04F0D1F8F6E7294605F06AFB4F
S11341F03346ECE78FB0000076B200002DE9F843B7
S1134200D0E9245604460F46002294F89830012B36
S113421007D10A2F07D1002384F898300020BDE885
S1134220F88300F29F801B2F01D10223F4E70D2FA6
S11342300DD1012384F898300D2004F0A6F80A204B
S113424004F0A3F800230120C4E92433E7E74FF086
S11342500008082F84F8988034D1454530DDB542F4
S11342600FD1384604F091F8202004F08EF8013D77
S1134270384604F08AF8013E04F80580C4E924565F
S1134280CCE7FBDA05F1FF39384604F07EF804EB9D
S11342900903A6EB09026119184605F0C5FA04F8EA
S11342A006800146013E484804F07BF835464D45FA
S11342B001DC4D46E2E7082004F067F8013DF6E72B
S11342C0ACD0DBE77F2F1CD1002EA7DDB542A5DAE9
S11342D06319691C21441846721B05F0A5FA04F8F9
S11342E006800146394804F05CF80820013E04F0D9
S11342F04CF8B542F9D1D4F89430013BC4F8943069
S11343008CE70A2F98D0092F03D12046FFF77EFEB1
S113431084E7D4F88C30013BB3427FF77FAFB542DA
S113432004EB050805F101090CDB384688F8007038
S1134330D4F89430C4F890900133C4F8943004F065
S113434024F86BE74146721B04EB090005F06CFA94
S1134350404604F026F80820013E04F016F8B54261
S1134360F9DDE2E7022B06D15B2F01D1032353E7EA
S113437084F8982049E7032B7FF450AF413F84F839
S11343809820032F3FF64AAFDFE807F002070A162A
S11343900121204603F0AAFF40E74FF0FF31F8E780
S11343A0B542BFF63BAF605D03F0EFFFD4F8903049
S11343B00133C4F8903031E7002D7FF72FAF013D72
S11343C00820C4F89050BAE77FB2000084B200001D
S11343D030B58BB06C46864D0FCD0FC42B68854A23
S11343E02360FF238DF80130D2F84C3113F480237D
S11343F040F0F280D2F850218DF801309DF8013060
S11344006C46FF2B08BF192368467B4D8DF801309D
S1134410FEF7B0F83220FEF70FF90FCD0FC40FCD21
S11344200FC495E8030084E80300724BD3F84C21D1
S1134430100340F1BD80A3F5FE431C88B4F5807FD2
S113444028BF8C248DF81940FEF78EF8044484F3B9
S113445008046A488DF81840FCF706FC6846FDF726
S113446095FF3220FEF7EEF8654A664B0321CDE94D
S113447000230023CDE9021301238020CDE9043376
S1134480FDF7C8FE0528044606D15F4A136F23F0E2
S1134490070343F0010313675C4806F01DF820B1DD
S11344A04FF4CE715A4803F0C4FA6846FEF7DCF9BB
S11344B0052C06D1544A136F23F0070343F002037B
S11344C0136720B94FF4D371514803F0B2FA51483D
S11344D006F002F820B140F2CB114D4803F0A9FADE
S11344E0494C0020FEF7B4F8FEF774F9236F00205E
S11344F023F0070343F002032367FEF795F9236FC4
S1134500454923F474432367444BD3F8FC2012F049
S1134510807251D1C1F880203B4BD3F8202122F086
S1134520030242F00102C3F82021D3F8242122F02F
S1134530070242F00102C3F82421D3F8802122F0BB
S1134540030242F00102C3F88021D3F8402122F093
S1134550030242F00202C3F84021D3F8602122F0A2
S1134560030242F00202C3F86021D3F8402222F091
S1134570030242F00202C3F84022D3F8002222F0E0
S1134580070242F00202C3F80022D3F8202222F0EC
S1134590030242F00102C3F82022FDF7DFFE4FF0D0
S11345A0E0220020136943F0040313610BB030BD13
S11345B0D3F85041E4B245E7D3F8FC2022F08072EE
S11345C0C3F8FC200022C1F88020D3F8FC2042F07C
S11345D08072C3F8FC209FE74FF07E6393F89C2021
S11345E093F99C30002BFFF609AF8DF8012005E705
S11345F040B300000080E00F54B3000000F0490213
S113460000E09304FF0E7F07008000509CB300007D
S1134610E0B2000090B300000090005000ED00E014
S113462007B56B46054A1068516803C36846FEF730
S113463031FB002003B05DF804FB00BF7CB3000035
S113464013B50024064A6846536F43F001035367C9
S113465000948DF80440FEF74BFA204602B010BDDA
S1134660004000500028ABBF00F16040054B00F54E
S1134670614000F00F00ACBF90F80003185C000923
S1134680704700BF14ED00E0402810B504460DD873
S113469001220A49630904F01F04A240203341F8AF
S11346A02320BFF34F8FBFF36F8F10BD40F225114E
S11346B0034803F0BEF9002CF7DBE9E700E100E072
S11346C0D0B30000402810B5044608D8012361097E
S11346D0074A04F01F04A34042F8213010BD4FF4F0
S11346E09871044803F0A5F9002CF7DBEEE700BF4E
S11346F000E100E0D0B300003F2810B5044604D91F
S113470040F23B11064803F094F9064B621153F84A
S1134710220004F01F04E040C04300F0010010BD7B
S1134720D0B3000000E100E000F10C034B2B10B506
S1134730044604D940F24B11144803F07AF9EFF31C
S11347401083DB0702D50122104610BD2046FFF777
S1134750D3FF02460028F6D160B2FFF783FF01467B
S1134760EFF3118313B1B0EB131FECD2084B5B686A
S1134770C3F30803002BE7D0103B58B2FFF772FFD6
S1134780814234BF00220122DEE700BFD0B3000023
S113479000ED00E0002808DB01224309034900F092
S11347A01F008240603341F82320704700E100E09D
S11347B038B500F11003502B04460D4604D94FF4CC
S11347C0EF710E4803F035F90F2D04D940F2DF11D3
S11347D00A4803F02EF960B20028ACBF00F1604033
S11347E0074B4FEA0515EDB2ABBF00F5614000F091
S11347F00F0080F800531D5438BD00BFD0B3000033
S113480014ED00E010B505F057FE0A4B1A786AB9AA
S113481001226FF004041A7005F049FE20460521B8
S11348200134FFF7C5FF402CF8D110BDBDE810409E
S113483005F03DBE311B002010B5044605F033FEE3
S1134840024B1C6005F02AFE002010BD2C1700202E
S113485010B505F028FE034B1C6805F01FFE20462A
S113486010BD00BF2C1700202DE9F0471D4613682A
S11348708EB0D3F8009091F83130824688461446C1
S113488006AE0BB3794F0FCF0FC697E80F0086E83B
S11348900F0018220021684604F0E0FFA368089383
S11348A0237B012B12D0022B13D01BB1D9217048CA
S11348B003F0BFF80023ADF82630637B032B1ED82A
S11348C0DFE803F00A24211A6A4FDCE74FF400738F
S11348D0F1E74FF44073EEE70023ADF828300123ED
S11348E08DF80630A37BCDF834D0042B11D8DFE843
S11348F003F01415151514004FF44053EDE7EB21A4
S11349005B4803F096F84FF48053E6E74FF4005306
S1134910E3E7FE21564803F08CF800238DF80030BD
S1134920554AD8F8383029461A60544A50465A60D5
S113493000229A60524ADA60424600F065FC06465C
S1134940002840F08C8023694E48C5F8A430E37DEC
S113495085F8AB30A37D85F8AA30637D85F8A9304E
S1134960237D85F8A830637E85F8AD30237E85F8F5
S1134970AC30E37E85F8AF30A37E85F8AE30236893
S1134980C5F8A03005F0A8FD01230422617D207D37
S1134990FEF730FC0123E17D0222A07DFEF72AFC14
S11349A085F8B060206905F097FD98F831304846E5
S11349B006A9002B57D0FEF7B5FB95F8B03043F0AD
S11349C0040385F8B03002222F4BC3F8C020607D69
S11349D0217D41EA0041C3F8D010E07DA17D41EA88
S11349E00041C3F8CC10A37B03F0FD03012B0AD1D3
S11349F095F8B03043F0010385F8B030617E0023B0
S1134A00207EFEF7F7FBA37B023B012B0BD895F826
S1134A10B030042243F0020385F8B030E17E002375
S1134A20A07EFEF7E7FB95F8B030DB070FD5637E79
S1134A30227E42EA0342154BC3F8C4200122C3F884
S1134A40C020E17EA27E42EA0142C3F8C820104A97
S1134A5009F50053052148465A64FEF76FF93046BC
S1134A600EB0BDE8F087FEF703FBACE780B40000AE
S1134A7031B40000A0B40000A38500003586000016
S1134A80B985000094B3000000C4035000D403505F
S1134A907F370C0140F24221014802F0CABF00BF37
S1134AA031B4000010B50020144603F013FD0228B1
S1134AB004D018B1C321024802F0BBFF204610BD48
S1134AC0C0B40000034B0222186800238068194612
S1134AD002F018BAF81B00203021037D02464B4334
S1134AE003F1A04303F58023D86E07491B6F884266
S1134AF008D113F0020006D0106A136D1B1A584235
S1134B005841704700207047321B0020302337B5CE
S1134B10007D0DF10701434303F1A04303F5802316
S1134B20DD6E1C6F05F038F920B140F2F931084808
S1134B3002F07FFF9DF8070040B9064B9D4203D168
S1134B4084F00204C4F3400003B030BD0120FBE74D
S1134B5016B50000321B002037B504460DF10701DD
S1134B60007D05F019F920B140F24441114802F0EA
S1134B7060FF9DF80730A3B1256DD4E912231344D7
S1134B809D4201D8AA4204D940F24F41094802F09B
S1134B9050FFD4E9120303449D4218BF284603B0D2
S1134BA030BD3022237D534303F1A04303F580231A
S1134BB0DD6EE2E716B500002DE9F743D0E90434D1
S1134BC004F17C07D0F80C90013B0646102200212A
S1134BD038469DB2D4F8748004F040FE104BC5F3FF
S1134BE00A0543EA0513C4E91F39012394F8780040
S1134BF084F88C30C4F884803A460A4B009604F159
S1134C006401FCF70DFC38B140F28D31064803B065
S1134C10BDE8F04302F00DBF03B0BDE8F08300BF70
S1134C2000001030A14D000016B500002DE9F0433E
S1134C3000F13806044685B010220021304604F005
S1134C400DFE4FF44473534D207DC4E90F55638723
S1134C50FCF70CFC20B140F2CA514F4802F0E9FEC7
S1134C6010220021304604F0F9FD4FF444736387A9
S1134C703023207DC4E90F55434303F1A04303F5DA
S1134C808023DB6EAB420BD1FCF710FC002876D0FE
S1134C9040F2D351404805B0BDE8F04302F0C9BE2C
S1134CA00DF10B0105F078F820B140F2D9513A48E2
S1134CB002F0BFFE9DF80B30002B63D12046FFF7B6
S1134CC04BFF03A90746207D05F088F820B140F288
S1134CD0E151314802F0ADFE039B002B04DC40F2AD
S1134CE0E3512D4802F0A5FE039B04F11808013B93
S1134CF01022002140469DB2D4F8109004F0AEFD7D
S1134D003022237DC5F30A0553432D0145F0407538
S1134D10C4E9065903F1A043276203F580231A6FFF
S1134D2094F82410520862F3410184F82410196F96
S1134D3094F8242028F0030861F3000284F8242066
S1134D401B6F626A9B0863F39F0248F0020362626E
S1134D506364009432462146104B207DFCF760FBCF
S1134D6020B140F204610C4802F063FE207DFCF7A0
S1134D709DFB20B14FF4C161074802F05AFE05B013
S1134D80BDE8F08394F844306FF3410384F8443071
S1134D90DFE700BF321B002016B500008586000047
S1134DA038B55569144695F88C3023B940F26A3108
S1134DB00A4802F03EFE002305F1900085F88C308D
S1134DC0FBF784FF08B1FFF7F7FE63681BB100210E
S1134DD02046A2689847002038BD00BF16B50000E1
S1134DE038B50446007DFCF741FB20B140F22D416B
S1134DF0084802F01EFE2046FFF76EFE0546207DA1
S1134E00FCF754FB20B140F23241024802F011FE9B
S1134E10284638BD16B500002DE9F04F9946002309
S1134E2004468DB008910692C9F80030D9F80060A4
S1134E30069B9D1B00F0C580089B9E1900F0C18055
S1134E402046FFF7CDFF8046002840F0BA80204678
S1134E50FFF782FE226D904240F2BC80801A8542A8
S1134E6028BF054694F896A0BAF1000F00F0F2802E
S1134E7005F022FB236D079020460993FFF746FEB9
S1134E802F46099B834658198342D4F8981040F062
S1134E90BC80D4E9122313448B4208BFC4F8982081
S1134EA0D4F898108A4201D88B4204D840F2425177
S1134EB08A4802F0BEFD079805F0F9FADA46207D2B
S1134EC0FCF7D4FA20B140F28241844802F0B1FDEB
S1134ED0207D0DF12F0104F05FFF20B140F28641E7
S1134EE07E4802F0A6FD2046FFF736FE236D83467A
S1134EF098429DF82F3040F2BC8023B140F28E419D
S1134F00764802F096FDA26C236DAEB2934240F057
S1134F10A880099304F1280823691022002140463F
S1134F20079304F09BFC3021079B013EE362099B3D
S1134F30C6F30A062363237D36014B4328F0030896
S1134F4003F1A04346F0407648F0020203F58023C3
S1134F50A6621A67236DD4E912122B440A449342C1
S1134F6008BF0B469342236504D340F2DE415B48FD
S1134F7002F05FFD236D9B4505D10123204684F893
S1134F805430FFF753FE207DFCF790FA20B140F235
S1134F90F741524802F04DFD94F896303BB1BAF116
S1134FA0000F04D0236E112120465B689847D9F87E
S1134FB0003037B1069A3B449342C9F80030FFF4FD
S1134FC035AFD9F80030002B14BF00201B200DB0E2
S1134FD0BDE8F08FD4E912310B449A4204D340F275
S1134FE06A413E4802F025FDD4E912321344226D91
S1134FF09B1A9D4228BF1D46002D7FF433AF40F21B
S11350001651364802F015FD2CE701335A1E914221
S113501010D1C4F8983013F8012C112A01D0132AA6
S113502014D1013FA2F111014A424A41D04684F809
S11350309C2029E713F8012C02F0FD01112906D167
S1135040013FB8F1000F3FF41FAFEBE7D04606F87D
S1135050012B19E72A463046216D04F033FC2F4614
S11350602DE7238DC3F30A12164466F30E1323852A
S113507070E7207D93B93023584300F1A04000F538
S11350808020426E436EC2F30A1223F4FF432A4483
S113509023F0700343EA021343665BE7104B049466
S11350A003930023CDE90153012300935A46236956
S11350B0216802F078FD20B140F2CB41074802F0AC
S11350C0B8FC3022237D534303F1A04303F580232E
S11350D05A6E22F480125A663CE700BF16B50000EF
S11350E0858600002DE9F84F90F8943004460D466B
S11350F0002B40F0858090F89580DFF808918E1899
S1135100B54223D094F896306BB12046FFF768FE81
S1135110F8B1D4F89820236D9A4204D040F2CD21FE
S1135120484602F086FC94F89C30002BE8D0236EAD
S11351302F462A785B68B8F1000F59D1236E2046B8
S11351405B683978013598470028D9D00020BDE83C
S1135150F88F05F0B1F90746207DFCF787F920B1F7
S113516040F2D321274802F064FC2046FFF7F4FC08
S1135170A26C00F1FF3A924538BFE36C207D3CBF3E
S113518003F1FF3302EB030A94F854B0FCF78EF9F1
S113519020B140F2DF211B4802F04BFCD4F89810F8
S11351A0BBF1000F22D0236D8B4204D04FF4397130
S11351B0144802F03EFC384605F079F9B3E7A26CD6
S11351C09A4202D9E36C013B134499420BD013F881
S11351D00129112A01D0132AF1D1A2F111035A4253
S11351E05A4184F89C20C4F898A0E4E75346ECE7BD
S11351F00A2AA3D10D212046984700289ED0A5E76E
S11352000E20A4E716B50000F0B50C461546064678
S1135210A022002189B0204604F020FB2746AC469A
S1135220BCE80F000FC7DCF8003005F1140C3B603C
S113523004F16407BCE80F000FC7DCF80030EA6A29
S11352403B60AB6AC4E9132395F83020A36484F867
S1135250952095F83320C4F89830012384F89620DB
S113526084F89C3084F85430AB6B2366324B346042
S11352707360324BB360324BF360324B7361324B29
S1135280B361324B3361FCF797F810B1304B98425D
S11352900FD1002107A8FCF717F8014648B9079B6E
S11352A007A82375FCF710F80346207D23B1FCF70B
S11352B05DF8102009B0F0BD079B84F87830FCF746
S11352C0D5F80028F5D1234B0494CDE90203E36C0F
S11352D00193012300932369A26C2168207D02F0CD
S11352E062FC0028E5D13022237D4FF48011534322
S11352F042F2640203F1A04303F580239950AB6B9F
S113530093F91000FFF746FAAB6B93F91000FFF71F
S1135310D9F904F1900002F08DFB3046FFF78CFAC6
S11353202046FFF783FC207DFCF7C0F8003818BF47
S113533001200001BEE700BFE5500000F586000033
S1135340194E0000798600007F8600005953000042
S1135350038000F08586000070B50568044695F862
S11353609460002E3BD103F0E8F9FFF771FA844210
S113537002D13046FFF760FA2B6E93F91000FFF765
S113538009FA2B6E93F91000FFF77EF9287D04F0DB
S1135390E3FC20B140F29721144802F04AFB287D37
S11353A0FBF7E4FF20B140F29B21104802F041FBDF
S11353B0FBF7BAFF38B10E4B984204D040F29F215C
S11353C00A4802F036FB0023C4E90033C4E905337C
S11353D0E3602B6E2846BDE87040DB68184740F256
S11353E06621024802F025FB0F2070BD16B50000AF
S11353F0058000F00346054A0549106803448B42C2
S11354008CBF4FF0FF301360704700BFE81B0020D3
S11354100080002008B5FEF7FFF801280ED1124BDA
S113542004205A6E4FF480231049520358BF104A87
S11354304B6601F51041086258BF536603F08BF9BF
S1135440FFF7E0F9FFF7ECF803F042F8FFF7F8F89C
S113545000F036F803F080F903F08DF902F05DFAFC
S1135460BDE8084003F079B9008000500090005076
S113547000A0005038B50446F0B142F20F73C08862
S1135480984219D825790B2D16D8E178A1B103F0EB
S113549099F90C22094B02FB00335B5D8B420BD361
S11354A0A378172B08D863783B2B05D820783B28A2
S11354B08CBF0020012038BD0020FCE7ADB5000002
S11354C0F8B504F0F9FF204F06463C78002C35D19E
S11354D01E4B1C601E4B1C601E4B1C6000F01EF912
S11354E0012004F0ABFF04F099FF1B4B0546186044
S11354F020B9304604F0DBFF2320F8BD0020002152
S1135500164B2A46C3E9000123460020012101F07D
S1135510F7F8134B00201A6001212A46234601F0B4
S1135520EFF8104B2A46186040F2E73123460E4844
S113553001F0E6F80D4B186001233B70304604F08F
S1135540B6FF0020D9E700BF351B00203817002024
S113555034170020501700203C17002000100020B2
S1135560441700204017002018FCFFFF30170020CC
S11355702DE9F84305F00AF804460E4B1F6804F0C1
S11355809BFF0D4B0D4AD3E90089B4FBF7F307FBEE
S11355901344126813EB0805144449F10006BC4295
S11355A002D3013546F1000604F081FF2846314656
S11355B0BDE8F8833C170020001000204C170020A1
S11355C02DE9F843194B064683424FF049038B41BA
S11355D00F4628D3164B0025D3F8008004F0D6FFDD
S11355E0044604F069FF1349134BC1E90067D1E98C
S11355F000671D60B4FBF8F306F1F84202F5AB0254
S113560002F5C07293420CD8D1E90089B8EB0306C5
S113561069F10007C1E9006704F049FF2846BDE8C5
S1135620F88304F044FF2120F9E700BF7FBD6879C7
S11356303C170020001000204C1700202DE9F843EF
S113564080460F46FFF716FF002846D0B8F806201C
S1135650234E042AA2FB065698F8049035D940F24A
S11356606C7002F26C7103F09DF80446104603F06E
S1135670A9F80C221B4B02FB00300023994526DCC1
S11356804FF46161002098F8013098F80220C3EBD0
S113569003139B0001FB023398F800201344D8F84D
S11356A00C20AD1A66EBE2765D1946EBE37698F8CA
S11356B00330013B1C440C4BA4B25C432D1946F14E
S11356C00006C7E90056BDE8F8830024CEE710F8C9
S11356D0012B0133224494B2D0E72120F3E700BF29
S11356E08033E101ADB500008051010010B50446DE
S11356F004F0E2FE024B1C60BDE8104004F0D7BE8B
S11357004817002010B504F0D7FE034B1C6804F0C2
S1135710CEFE204610BD00BF481700201FB5002450
S11357201A4B18689A880290D3F806009B7A009066
S11357301748ADF80C208DF8043004F0CDFE8DF838
S1135740084003F08BF88DF80C0002A8FDF740FF29
S1135750694601208DF80040FDF7ECFE40F2FF326F
S11357600C4B9A615A614FF0B042936A13F00803EC
S1135770FBD113620120FDF701FF0C20FFF70AF8AB
S11357800C20FEF79FFF04B010BD00BFC5B500009C
S11357908CB300000020005810B504F08DFE4FF0CB
S11357A0B04304465B695A06074A03F0010003F05C
S11357B0510348BF40F00200536104F02FFD20461E
S11357C0BDE8104004F073BE00200058032870B5F3
S11357D004460E46154604D940F24951094802F0E0
S11357E028F904EB44031B0103F1A04303F57033D0
S11357F01A682D0545EA061522F0701215431D603E
S113580070BD00BF01AE0000F0B589B004466E461D
S11358100568114B477F05F1240C1F702B1D324680
S113582018685968083303C263451646F7D1A3695B
S113583028468DF81A700393FCF74CF848B969466A
S11358402068FBF765FF003818BF0120404209B00B
S1135850F0BD4FF0FF30FAE7361B00204FF0FF3366
S11358600022C0E902330361024B027043614276B5
S1135870704700BFA086010010B5031D01F120028E
S113588051F8044B914243F8044BF9D1044B1A6884
S1135890904216BF18604FF0FF30002010BD00BFCB
S11358A058170020F8B5114B114E1A680C46904257
S11358B018BF1860B1422CBF0726052605460768A5
S11358C032463146B87AFFF781FF32463146387A9C
S11358D0FFF77CFF074B21463846AC611C60FCF7A0
S11358E091F8003818BF01204042F8BD5817002035
S11358F08096980054170020154B70B516461A6808
S11359000D46904218BF1860124B81691A6804460C
S113591091420ED1104B627F1B789A4212D13246CB
S113592029462068FCF752F8003818BF012040428D
S113593007E000681960FCF765F80028EAD04FF02A
S1135940FF3070BD2046FFF75FFF0028E7D0F6E781
S11359505817002054170020361B00202DE9F84367
S1135960DFF890900446D9F800308846984218BF72
S1135970C9F80000B2F5006F154600AF04D94FF026
S1135980FF30BD46BDE8F883D31D184A23F0070352
S1135990ADEB030D816913686E4699420ED1144B29
S11359A0627F1B789A4204D02046FFF72DFF00281F
S11359B0E5D13346D9F80010AA1909E0006811604E
S11359C0FCF720F80028EAD0D9E7087903F8010B9E
S11359D09342FAD12B46424631462068FBF7D0FF6A
S11359E0003818BF01204042CBE700BF5417002005
S11359F0361B002058170020F8B51F46154B1646D5
S1135A001A680D46904218BF1860134B81691A68D2
S1135A10044691420FD1114B627F1B789A4213D1F5
S1135A203B46324629462068FBF7AAFF003818BFD8
S1135A300120404207E000681960FBF7E3FF0028FB
S1135A40E9D04FF0FF30F8BD2046FFF7DDFE002817
S1135A50E6D0F6E75817002054170020361B002024
S1135A600A2337B5B0FBF3F00A4C0B4D2060FF213D
S1135A7028460DF1070202F01CFF9DF80700FF28DD
S1135A8002D02368002BF2D1A0F1FF035842584101
S1135A9003B030BDA41700207C17002007B5FF21F8
S1135AA00DF10702024802F004FF03B05DF804FBA5
S1135AB07C17002013B5FF210DF10702064802F000
S1135AC0F8FE4FF4FA70FFF7CBFF044608B9FFF76E
S1135AD0E5FF204602B010BD7C170020030637B551
S1135AE004460D4609D500213720FFF7F7FF0128AA
S1135AF08DF8070047D804F07F040C2C3CD10DF13D
S1135B00070244F04001284802F0D3FE0DF10702D9
S1135B10290E254802F0CDFE0DF10702C5F3074119
S1135B20214802F0C6FE0DF10702C5F307211E4805
S1135B3002F0BFFE1C480DF10702E9B202F0B9FE03
S1135B401CB3082C0DF1070223D18721164802F05B
S1135B50B0FE0A24144DFF2128460DF1070202F07D
S1135B60A8FE9DF907309DF80700002B0BDA013CD5
S1135B7014F0FF04EFD106E0FFF790FFFFF79AFF60
S1135B800028BCD1FF2003B030BD95210DF10702E0
S1135B90DCE70121044802F08CFE0C2CD9D1FF2152
S1135BA00DF10702D2E700BF7C1700200A23F7B5E6
S1135BB004460D46144E154F3360FF2138460DF14F
S1135BC0070202F076FE9DF80730FF2B04D13068FF
S1135BD00028F2D103B0F0BDFE2B12D12146AAB2A7
S1135BE00A4802F084FEFF210DF10702074802F083
S1135BF060FEFF2105480DF1070202F05AFE012064
S1135C00E8E70020E6E700BFA81700207C17002083
S1135C1073B506464FF4FA700D46FFF721FF0446AC
S1135C2030B3294614480DF1070202F042FEFD2D5F
S1135C301ED04FF4007231460F4802F04DFEFF2192
S1135C400DF107020C4802F034FEFF210DF10702AA
S1135C50094802F02EFEFF2107480DF1070202F069
S1135C6028FE9DF8074004F01F04631F5C425C415A
S1135C70204602B070BD00BF7C17002001232DE92F
S1135C80F3414E4D2B60D5F80080B8F1000FFAD1E6
S1135C904B4E33789B0704D53078C0B202B0BDE8D0
S1135CA0F0814849484802F02DFE0A24464FFF215E
S1135CB038460DF10302013C02F0FBFD14F0FF0431
S1135CC0F5D121462046FFF709FF0128074607D0F2
S1135CD000223E4B1A70FFF7E1FE01233370DBE72D
S1135CE064234FF4D57108202B60FFF7F7FE0128D9
